{
  "contractName": "Gears",
  "abi": [
    {
      "inputs": [
        {
          "internalType": "string",
          "name": "_nftBaseURI",
          "type": "string"
        }
      ],
      "stateMutability": "nonpayable",
      "type": "constructor"
    },
    {
      "anonymous": false,
      "inputs": [
        {
          "indexed": true,
          "internalType": "address",
          "name": "owner",
          "type": "address"
        },
        {
          "indexed": true,
          "internalType": "address",
          "name": "approved",
          "type": "address"
        },
        {
          "indexed": true,
          "internalType": "uint256",
          "name": "tokenId",
          "type": "uint256"
        }
      ],
      "name": "Approval",
      "type": "event"
    },
    {
      "anonymous": false,
      "inputs": [
        {
          "indexed": true,
          "internalType": "address",
          "name": "owner",
          "type": "address"
        },
        {
          "indexed": true,
          "internalType": "address",
          "name": "operator",
          "type": "address"
        },
        {
          "indexed": false,
          "internalType": "bool",
          "name": "approved",
          "type": "bool"
        }
      ],
      "name": "ApprovalForAll",
      "type": "event"
    },
    {
      "anonymous": false,
      "inputs": [
        {
          "indexed": true,
          "internalType": "address",
          "name": "previousOwner",
          "type": "address"
        },
        {
          "indexed": true,
          "internalType": "address",
          "name": "newOwner",
          "type": "address"
        }
      ],
      "name": "OwnershipTransferred",
      "type": "event"
    },
    {
      "anonymous": false,
      "inputs": [
        {
          "indexed": true,
          "internalType": "address",
          "name": "from",
          "type": "address"
        },
        {
          "indexed": true,
          "internalType": "address",
          "name": "to",
          "type": "address"
        },
        {
          "indexed": true,
          "internalType": "uint256",
          "name": "tokenId",
          "type": "uint256"
        }
      ],
      "name": "Transfer",
      "type": "event"
    },
    {
      "inputs": [
        {
          "internalType": "address",
          "name": "to",
          "type": "address"
        },
        {
          "internalType": "uint256",
          "name": "tokenId",
          "type": "uint256"
        }
      ],
      "name": "approve",
      "outputs": [],
      "stateMutability": "nonpayable",
      "type": "function"
    },
    {
      "inputs": [
        {
          "internalType": "address",
          "name": "owner",
          "type": "address"
        }
      ],
      "name": "balanceOf",
      "outputs": [
        {
          "internalType": "uint256",
          "name": "",
          "type": "uint256"
        }
      ],
      "stateMutability": "view",
      "type": "function"
    },
    {
      "inputs": [],
      "name": "collectionManager",
      "outputs": [
        {
          "internalType": "address",
          "name": "",
          "type": "address"
        }
      ],
      "stateMutability": "view",
      "type": "function"
    },
    {
      "inputs": [
        {
          "internalType": "uint256",
          "name": "",
          "type": "uint256"
        }
      ],
      "name": "gears",
      "outputs": [
        {
          "internalType": "enum IEnums.Rarity",
          "name": "rarity",
          "type": "uint8"
        },
        {
          "internalType": "uint256",
          "name": "gearType",
          "type": "uint256"
        },
        {
          "internalType": "uint256",
          "name": "category",
          "type": "uint256"
        },
        {
          "internalType": "uint256",
          "name": "durability",
          "type": "uint256"
        },
        {
          "internalType": "bool",
          "name": "locked",
          "type": "bool"
        },
        {
          "internalType": "bool",
          "name": "set",
          "type": "bool"
        }
      ],
      "stateMutability": "view",
      "type": "function"
    },
    {
      "inputs": [
        {
          "internalType": "uint256",
          "name": "tokenId",
          "type": "uint256"
        }
      ],
      "name": "getApproved",
      "outputs": [
        {
          "internalType": "address",
          "name": "",
          "type": "address"
        }
      ],
      "stateMutability": "view",
      "type": "function"
    },
    {
      "inputs": [
        {
          "internalType": "address",
          "name": "owner",
          "type": "address"
        },
        {
          "internalType": "address",
          "name": "operator",
          "type": "address"
        }
      ],
      "name": "isApprovedForAll",
      "outputs": [
        {
          "internalType": "bool",
          "name": "",
          "type": "bool"
        }
      ],
      "stateMutability": "view",
      "type": "function"
    },
    {
      "inputs": [
        {
          "internalType": "address",
          "name": "",
          "type": "address"
        }
      ],
      "name": "lastTokenMinted",
      "outputs": [
        {
          "internalType": "uint256",
          "name": "",
          "type": "uint256"
        }
      ],
      "stateMutability": "view",
      "type": "function"
    },
    {
      "inputs": [],
      "name": "name",
      "outputs": [
        {
          "internalType": "string",
          "name": "",
          "type": "string"
        }
      ],
      "stateMutability": "view",
      "type": "function"
    },
    {
      "inputs": [],
      "name": "nextIdToMint",
      "outputs": [
        {
          "internalType": "uint256",
          "name": "",
          "type": "uint256"
        }
      ],
      "stateMutability": "view",
      "type": "function"
    },
    {
      "inputs": [],
      "name": "owner",
      "outputs": [
        {
          "internalType": "address",
          "name": "",
          "type": "address"
        }
      ],
      "stateMutability": "view",
      "type": "function"
    },
    {
      "inputs": [
        {
          "internalType": "uint256",
          "name": "tokenId",
          "type": "uint256"
        }
      ],
      "name": "ownerOf",
      "outputs": [
        {
          "internalType": "address",
          "name": "",
          "type": "address"
        }
      ],
      "stateMutability": "view",
      "type": "function"
    },
    {
      "inputs": [],
      "name": "renounceOwnership",
      "outputs": [],
      "stateMutability": "nonpayable",
      "type": "function"
    },
    {
      "inputs": [
        {
          "internalType": "address",
          "name": "from",
          "type": "address"
        },
        {
          "internalType": "address",
          "name": "to",
          "type": "address"
        },
        {
          "internalType": "uint256",
          "name": "tokenId",
          "type": "uint256"
        }
      ],
      "name": "safeTransferFrom",
      "outputs": [],
      "stateMutability": "nonpayable",
      "type": "function"
    },
    {
      "inputs": [
        {
          "internalType": "address",
          "name": "from",
          "type": "address"
        },
        {
          "internalType": "address",
          "name": "to",
          "type": "address"
        },
        {
          "internalType": "uint256",
          "name": "tokenId",
          "type": "uint256"
        },
        {
          "internalType": "bytes",
          "name": "_data",
          "type": "bytes"
        }
      ],
      "name": "safeTransferFrom",
      "outputs": [],
      "stateMutability": "nonpayable",
      "type": "function"
    },
    {
      "inputs": [
        {
          "internalType": "address",
          "name": "operator",
          "type": "address"
        },
        {
          "internalType": "bool",
          "name": "approved",
          "type": "bool"
        }
      ],
      "name": "setApprovalForAll",
      "outputs": [],
      "stateMutability": "nonpayable",
      "type": "function"
    },
    {
      "inputs": [
        {
          "internalType": "bytes4",
          "name": "interfaceId",
          "type": "bytes4"
        }
      ],
      "name": "supportsInterface",
      "outputs": [
        {
          "internalType": "bool",
          "name": "",
          "type": "bool"
        }
      ],
      "stateMutability": "view",
      "type": "function"
    },
    {
      "inputs": [],
      "name": "symbol",
      "outputs": [
        {
          "internalType": "string",
          "name": "",
          "type": "string"
        }
      ],
      "stateMutability": "view",
      "type": "function"
    },
    {
      "inputs": [
        {
          "internalType": "uint256",
          "name": "index",
          "type": "uint256"
        }
      ],
      "name": "tokenByIndex",
      "outputs": [
        {
          "internalType": "uint256",
          "name": "",
          "type": "uint256"
        }
      ],
      "stateMutability": "view",
      "type": "function"
    },
    {
      "inputs": [
        {
          "internalType": "address",
          "name": "owner",
          "type": "address"
        },
        {
          "internalType": "uint256",
          "name": "index",
          "type": "uint256"
        }
      ],
      "name": "tokenOfOwnerByIndex",
      "outputs": [
        {
          "internalType": "uint256",
          "name": "",
          "type": "uint256"
        }
      ],
      "stateMutability": "view",
      "type": "function"
    },
    {
      "inputs": [],
      "name": "totalSupply",
      "outputs": [
        {
          "internalType": "uint256",
          "name": "",
          "type": "uint256"
        }
      ],
      "stateMutability": "view",
      "type": "function"
    },
    {
      "inputs": [
        {
          "internalType": "address",
          "name": "from",
          "type": "address"
        },
        {
          "internalType": "address",
          "name": "to",
          "type": "address"
        },
        {
          "internalType": "uint256",
          "name": "tokenId",
          "type": "uint256"
        }
      ],
      "name": "transferFrom",
      "outputs": [],
      "stateMutability": "nonpayable",
      "type": "function"
    },
    {
      "inputs": [
        {
          "internalType": "address",
          "name": "newOwner",
          "type": "address"
        }
      ],
      "name": "transferOwnership",
      "outputs": [],
      "stateMutability": "nonpayable",
      "type": "function"
    },
    {
      "inputs": [
        {
          "internalType": "address",
          "name": "_collectionManager",
          "type": "address"
        }
      ],
      "name": "setCollectionManager",
      "outputs": [],
      "stateMutability": "nonpayable",
      "type": "function"
    },
    {
      "inputs": [
        {
          "internalType": "string",
          "name": "newURI",
          "type": "string"
        }
      ],
      "name": "setBaseURI",
      "outputs": [],
      "stateMutability": "nonpayable",
      "type": "function"
    },
    {
      "inputs": [
        {
          "internalType": "uint256",
          "name": "tokenId",
          "type": "uint256"
        }
      ],
      "name": "tokenURI",
      "outputs": [
        {
          "internalType": "string",
          "name": "",
          "type": "string"
        }
      ],
      "stateMutability": "view",
      "type": "function"
    },
    {
      "inputs": [],
      "name": "lastOwnedTokenURI",
      "outputs": [
        {
          "internalType": "string",
          "name": "",
          "type": "string"
        }
      ],
      "stateMutability": "view",
      "type": "function"
    },
    {
      "inputs": [
        {
          "internalType": "address",
          "name": "receiver",
          "type": "address"
        },
        {
          "internalType": "enum IEnums.Rarity",
          "name": "rarity",
          "type": "uint8"
        },
        {
          "internalType": "uint256",
          "name": "gearType",
          "type": "uint256"
        },
        {
          "internalType": "uint256",
          "name": "category",
          "type": "uint256"
        },
        {
          "internalType": "uint256",
          "name": "durability",
          "type": "uint256"
        }
      ],
      "name": "mint",
      "outputs": [],
      "stateMutability": "nonpayable",
      "type": "function"
    },
    {
      "inputs": [
        {
          "internalType": "uint256",
          "name": "tokenId",
          "type": "uint256"
        }
      ],
      "name": "burn",
      "outputs": [],
      "stateMutability": "nonpayable",
      "type": "function"
    },
    {
      "inputs": [
        {
          "internalType": "uint256",
          "name": "_from",
          "type": "uint256"
        },
        {
          "internalType": "uint256",
          "name": "_to",
          "type": "uint256"
        }
      ],
      "name": "allMyTokensPaginate",
      "outputs": [
        {
          "internalType": "uint256[]",
          "name": "",
          "type": "uint256[]"
        },
        {
          "components": [
            {
              "internalType": "enum IEnums.Rarity",
              "name": "rarity",
              "type": "uint8"
            },
            {
              "internalType": "uint256",
              "name": "gearType",
              "type": "uint256"
            },
            {
              "internalType": "uint256",
              "name": "category",
              "type": "uint256"
            },
            {
              "internalType": "uint256",
              "name": "durability",
              "type": "uint256"
            },
            {
              "internalType": "bool",
              "name": "locked",
              "type": "bool"
            },
            {
              "internalType": "bool",
              "name": "set",
              "type": "bool"
            }
          ],
          "internalType": "struct IGears.Gear[]",
          "name": "",
          "type": "tuple[]"
        }
      ],
      "stateMutability": "view",
      "type": "function"
    },
    {
      "inputs": [
        {
          "internalType": "uint256",
          "name": "_from",
          "type": "uint256"
        },
        {
          "internalType": "uint256",
          "name": "_to",
          "type": "uint256"
        }
      ],
      "name": "allTokensPaginate",
      "outputs": [
        {
          "internalType": "uint256[]",
          "name": "",
          "type": "uint256[]"
        },
        {
          "components": [
            {
              "internalType": "enum IEnums.Rarity",
              "name": "rarity",
              "type": "uint8"
            },
            {
              "internalType": "uint256",
              "name": "gearType",
              "type": "uint256"
            },
            {
              "internalType": "uint256",
              "name": "category",
              "type": "uint256"
            },
            {
              "internalType": "uint256",
              "name": "durability",
              "type": "uint256"
            },
            {
              "internalType": "bool",
              "name": "locked",
              "type": "bool"
            },
            {
              "internalType": "bool",
              "name": "set",
              "type": "bool"
            }
          ],
          "internalType": "struct IGears.Gear[]",
          "name": "",
          "type": "tuple[]"
        }
      ],
      "stateMutability": "view",
      "type": "function"
    },
    {
      "inputs": [
        {
          "internalType": "uint256",
          "name": "tokenId",
          "type": "uint256"
        }
      ],
      "name": "lockGear",
      "outputs": [],
      "stateMutability": "nonpayable",
      "type": "function"
    },
    {
      "inputs": [
        {
          "internalType": "uint256",
          "name": "tokenId",
          "type": "uint256"
        }
      ],
      "name": "unlockGear",
      "outputs": [],
      "stateMutability": "nonpayable",
      "type": "function"
    },
    {
      "inputs": [
        {
          "internalType": "uint256",
          "name": "tokenId",
          "type": "uint256"
        },
        {
          "internalType": "uint32",
          "name": "amount",
          "type": "uint32"
        }
      ],
      "name": "decreaseDurability",
      "outputs": [],
      "stateMutability": "nonpayable",
      "type": "function"
    },
    {
      "inputs": [
        {
          "internalType": "address",
          "name": "_tokenContract",
          "type": "address"
        },
        {
          "internalType": "address",
          "name": "_whereTo",
          "type": "address"
        },
        {
          "internalType": "uint256",
          "name": "_amount",
          "type": "uint256"
        }
      ],
      "name": "withdrawToken",
      "outputs": [],
      "stateMutability": "nonpayable",
      "type": "function"
    }
  ],
  "bytecode": "0x60806040526001600f553480156200001657600080fd5b5060405162002e5a38038062002e5a8339810160408190526200003991620001e4565b6040805180820182526005815264476561727360d81b60208083019182528351808501909452600484526323b2b0b960e11b908401528151919291620000829160009162000128565b5080516200009890600190602084019062000128565b505050620000b5620000af620000d260201b60201c565b620000d6565b8051620000ca90600b90602084019062000128565b5050620002fc565b3390565b600a80546001600160a01b038381166001600160a01b0319831681179093556040519116919082907f8be0079c531659141344cd1fd0a4f28419497f9722a3daafe3b4186f6b6457e090600090a35050565b8280546200013690620002c0565b90600052602060002090601f0160209004810192826200015a5760008555620001a5565b82601f106200017557805160ff1916838001178555620001a5565b82800160010185558215620001a5579182015b82811115620001a557825182559160200191906001019062000188565b50620001b3929150620001b7565b5090565b5b80821115620001b35760008155600101620001b8565b634e487b7160e01b600052604160045260246000fd5b60006020808385031215620001f857600080fd5b82516001600160401b03808211156200021057600080fd5b818501915085601f8301126200022557600080fd5b8151818111156200023a576200023a620001ce565b604051601f8201601f19908116603f01168101908382118183101715620002655762000265620001ce565b8160405282815288868487010111156200027e57600080fd5b600093505b82841015620002a2578484018601518185018701529285019262000283565b82841115620002b45760008684830101525b98975050505050505050565b600181811c90821680620002d557607f821691505b602082108103620002f657634e487b7160e01b600052602260045260246000fd5b50919050565b612b4e806200030c6000396000f3fe608060405234801561001057600080fd5b50600436106102065760003560e01c80636352211e1161011a57806395d89b41116100ad578063b88d4fde1161007c578063b88d4fde146104a5578063c87b56dd146104b8578063caca3479146104cb578063e985e9c5146104d3578063f2fde38b1461050f57600080fd5b806395d89b411461046e5780639fdf846914610476578063a22cb46514610489578063a568edea1461049c57600080fd5b806381aa90c4116100e957806381aa90c4146103cc5780638cabaaee146103ed5780638da5cb5b146104005780638e4822741461041157600080fd5b80636352211e1461038b57806370a082311461039e578063715018a6146103b157806376fdcb26146103b957600080fd5b80632a5c5fcc1161019d5780634eeb9fb21161016c5780634eeb9fb21461031f5780634f6ccce71461033257806355f804b3146103455780635835e37d146103585780635897fc6c1461037857600080fd5b80632a5c5fcc146102d35780632f745c59146102e657806342842e0e146102f957806342966c681461030c57600080fd5b8063095ea7b3116101d9578063095ea7b31461028857806318160ddd1461029b578063236f0b20146102ad57806323b872dd146102c057600080fd5b806301e336671461020b57806301ffc9a71461022057806306fdde0314610248578063081812fc1461025d575b600080fd5b61021e610219366004612336565b610522565b005b61023361022e366004612388565b6105d2565b60405190151581526020015b60405180910390f35b6102506105fd565b60405161023f9190612404565b61027061026b366004612417565b61068f565b6040516001600160a01b03909116815260200161023f565b61021e610296366004612430565b610724565b6008545b60405190815260200161023f565b61021e6102bb36600461245a565b610839565b61021e6102ce366004612336565b6109d1565b61021e6102e13660046124ad565b610a02565b61029f6102f4366004612430565b610a4e565b61021e610307366004612336565b610ae4565b61021e61031a366004612417565b610aff565b61021e61032d366004612417565b610b4f565b61029f610340366004612417565b610b94565b61021e610353366004612554565b610c27565b61029f6103663660046124ad565b600e6020526000908152604090205481565b61021e61038636600461259d565b610c68565b610270610399366004612417565b610ce9565b61029f6103ac3660046124ad565b610d60565b61021e610de7565b61021e6103c7366004612417565b610e1d565b6103df6103da3660046125d6565b610e65565b60405161023f929190612630565b6103df6103fb3660046125d6565b6110fa565b600a546001600160a01b0316610270565b61045c61041f366004612417565b600d602052600090815260409020805460018201546002830154600384015460049094015460ff9384169492939192918181169161010090041686565b60405161023f969594939291906126ea565b61025061135a565b600c54610270906001600160a01b031681565b61021e610497366004612732565b611369565b61029f600f5481565b61021e6104b336600461275e565b611374565b6102506104c6366004612417565b6113ac565b6102506114c8565b6102336104e13660046127da565b6001600160a01b03918216600090815260056020908152604080832093909416825291909152205460ff1690565b61021e61051d3660046124ad565b611546565b600a546001600160a01b031633146105555760405162461bcd60e51b815260040161054c9061280d565b60405180910390fd5b60405163a9059cbb60e01b81526001600160a01b0383811660048301526024820183905284919082169063a9059cbb906044016020604051808303816000875af11580156105a7573d6000803e3d6000fd5b505050506040513d601f19601f820116820180604052508101906105cb9190612842565b5050505050565b60006001600160e01b0319821663780e9d6360e01b14806105f757506105f7826115de565b92915050565b60606000805461060c9061285f565b80601f01602080910402602001604051908101604052809291908181526020018280546106389061285f565b80156106855780601f1061065a57610100808354040283529160200191610685565b820191906000526020600020905b81548152906001019060200180831161066857829003601f168201915b5050505050905090565b6000818152600260205260408120546001600160a01b03166107085760405162461bcd60e51b815260206004820152602c60248201527f4552433732313a20617070726f76656420717565727920666f72206e6f6e657860448201526b34b9ba32b73a103a37b5b2b760a11b606482015260840161054c565b506000908152600460205260409020546001600160a01b031690565b600061072f82610ce9565b9050806001600160a01b0316836001600160a01b03160361079c5760405162461bcd60e51b815260206004820152602160248201527f4552433732313a20617070726f76616c20746f2063757272656e74206f776e656044820152603960f91b606482015260840161054c565b336001600160a01b03821614806107b857506107b881336104e1565b61082a5760405162461bcd60e51b815260206004820152603860248201527f4552433732313a20617070726f76652063616c6c6572206973206e6f74206f7760448201527f6e6572206e6f7220617070726f76656420666f7220616c6c0000000000000000606482015260840161054c565b610834838361162e565b505050565b600c546001600160a01b031633146108635760405162461bcd60e51b815260040161054c90612899565b60105460ff161561089f5760405162461bcd60e51b81526020600482015260066024820152651b1bd8dad95960d21b604482015260640161054c565b6010805460ff191660011790556040805160c08101909152600090808660028111156108cd576108cd6125f8565b81526020808201879052604080830187905260608301869052600060808401819052600160a0909401849052600f548152600d909252902082518154939450849391929091839160ff199091169083600281111561092d5761092d6125f8565b021790555060208201516001820155604082015160028201556060820151600382015560808201516004909101805460a09093015115156101000261ff00199215159290921661ffff1990931692909217179055600f5461098f90879061169c565b600f80546001600160a01b0388166000908152600e602052604081208290559091906109ba836128e6565b90915550506010805460ff19169055505050505050565b6109db33826116b6565b6109f75760405162461bcd60e51b815260040161054c906128ff565b6108348383836117ad565b600a546001600160a01b03163314610a2c5760405162461bcd60e51b815260040161054c9061280d565b600c80546001600160a01b0319166001600160a01b0392909216919091179055565b6000610a5983610d60565b8210610abb5760405162461bcd60e51b815260206004820152602b60248201527f455243373231456e756d657261626c653a206f776e657220696e646578206f7560448201526a74206f6620626f756e647360a81b606482015260840161054c565b506001600160a01b03919091166000908152600660209081526040808320938352929052205490565b61083483838360405180602001604052806000815250611374565b600c546001600160a01b03163314610b295760405162461bcd60e51b815260040161054c90612899565b6000818152600d60205260409020600401805461ffff19169055610b4c81611954565b50565b600c546001600160a01b03163314610b795760405162461bcd60e51b815260040161054c90612899565b6000908152600d60205260409020600401805460ff19169055565b6000610b9f60085490565b8210610c025760405162461bcd60e51b815260206004820152602c60248201527f455243373231456e756d657261626c653a20676c6f62616c20696e646578206f60448201526b7574206f6620626f756e647360a01b606482015260840161054c565b60088281548110610c1557610c15612950565b90600052602060002001549050919050565b600a546001600160a01b03163314610c515760405162461bcd60e51b815260040161054c9061280d565b8051610c6490600b906020840190612246565b5050565b600c546001600160a01b03163314610c925760405162461bcd60e51b815260040161054c90612899565b6000828152600d602052604090206003015463ffffffff821610610cb957610cb982611954565b6000828152600d60205260408120600301805463ffffffff84169290610ce0908490612966565b90915550505050565b6000818152600260205260408120546001600160a01b0316806105f75760405162461bcd60e51b815260206004820152602960248201527f4552433732313a206f776e657220717565727920666f72206e6f6e657869737460448201526832b73a103a37b5b2b760b91b606482015260840161054c565b60006001600160a01b038216610dcb5760405162461bcd60e51b815260206004820152602a60248201527f4552433732313a2062616c616e636520717565727920666f7220746865207a65604482015269726f206164647265737360b01b606482015260840161054c565b506001600160a01b031660009081526003602052604090205490565b600a546001600160a01b03163314610e115760405162461bcd60e51b815260040161054c9061280d565b610e1b60006119fb565b565b600c546001600160a01b03163314610e475760405162461bcd60e51b815260040161054c90612899565b6000908152600d60205260409020600401805460ff19166001179055565b6060806000610e7333610d60565b90508481111580610e8357508385115b80610e8c575080155b15610ed55760408051600080825260208201818152828401909352909190610eca565b610eb76122ca565b815260200190600190039081610eaf5790505b5092509250506110f3565b600084610ee3600184612966565b11610ef857610ef3600183612966565b610efa565b845b90506000610f088783612966565b610f1390600161297d565b67ffffffffffffffff811115610f2b57610f2b6124c8565b604051908082528060200260200182016040528015610f54578160200160208202803683370190505b5090506000610f638884612966565b610f6e90600161297d565b67ffffffffffffffff811115610f8657610f866124c8565b604051908082528060200260200182016040528015610fbf57816020015b610fac6122ca565b815260200190600190039081610fa45790505b509050875b8381116110ea57610fd53382610a4e565b83610fe08b84612966565b81518110610ff057610ff0612950565b6020908102919091010152600d60008461100a8c85612966565b8151811061101a5761101a612950565b602002602001015181526020019081526020016000206040518060c00160405290816000820160009054906101000a900460ff16600281111561105f5761105f6125f8565b6002811115611070576110706125f8565b815260018201546020820152600282015460408201526003820154606082015260049091015460ff8082161515608084015261010090910416151560a090910152826110bc8b84612966565b815181106110cc576110cc612950565b602002602001018190525080806110e2906128e6565b915050610fc4565b50909450925050505b9250929050565b606080600061110860085490565b9050848111158061111857508385115b80611121575080155b156111695760408051600080825260208201818152828401909352909190610eca565b61114c6122ca565b8152602001906001900390816111445790505092509250506110f3565b600084611177600184612966565b1161118c57611187600183612966565b61118e565b845b9050600061119c8783612966565b6111a790600161297d565b67ffffffffffffffff8111156111bf576111bf6124c8565b6040519080825280602002602001820160405280156111e8578160200160208202803683370190505b50905060006111f78884612966565b61120290600161297d565b67ffffffffffffffff81111561121a5761121a6124c8565b60405190808252806020026020018201604052801561125357816020015b6112406122ca565b8152602001906001900390816112385790505b509050875b8381116110ea5761126881610b94565b836112738b84612966565b8151811061128357611283612950565b602002602001018181525050600d600061129c83610b94565b815260208101919091526040908101600020815160c081019092528054829060ff1660028111156112cf576112cf6125f8565b60028111156112e0576112e06125f8565b815260018201546020820152600282015460408201526003820154606082015260049091015460ff8082161515608084015261010090910416151560a0909101528261132c8b84612966565b8151811061133c5761133c612950565b60200260200101819052508080611352906128e6565b915050611258565b60606001805461060c9061285f565b610c64338383611a4d565b61137e33836116b6565b61139a5760405162461bcd60e51b815260040161054c906128ff565b6113a684848484611b1b565b50505050565b6000818152600260205260409020546060906001600160a01b031661142b5760405162461bcd60e51b815260206004820152602f60248201527f4552433732314d657461646174613a2055524920717565727920666f72206e6f60448201526e3732bc34b9ba32b73a103a37b5b2b760891b606482015260840161054c565b6000611435611b4e565b6000848152600d602052604090206001810154600282015491548351939450909260ff9091169061147557604051806020016040528060008152506114be565b8361147f87611b5d565b61148885611b5d565b61149185611b5d565b61149a85611c5e565b6040516020016114ae959493929190612995565b6040516020818303038152906040525b9695505050505050565b336000908152600e6020526040812054606091036115285760405162461bcd60e51b815260206004820152601c60248201527f55736572206861736e2774206d696e74656420616e7920746f6b656e00000000604482015260640161054c565b336000908152600e6020526040902054611541906113ac565b905090565b600a546001600160a01b031633146115705760405162461bcd60e51b815260040161054c9061280d565b6001600160a01b0381166115d55760405162461bcd60e51b815260206004820152602660248201527f4f776e61626c653a206e6577206f776e657220697320746865207a65726f206160448201526564647265737360d01b606482015260840161054c565b610b4c816119fb565b60006001600160e01b031982166380ac58cd60e01b148061160f57506001600160e01b03198216635b5e139f60e01b145b806105f757506301ffc9a760e01b6001600160e01b03198316146105f7565b600081815260046020526040902080546001600160a01b0319166001600160a01b038416908117909155819061166382610ce9565b6001600160a01b03167f8c5be1e5ebec7d5bd14f71427d1e84f3dd0314c0f7b2291e5b200ac8c7c3b92560405160405180910390a45050565b610c64828260405180602001604052806000815250611ce9565b6000818152600260205260408120546001600160a01b031661172f5760405162461bcd60e51b815260206004820152602c60248201527f4552433732313a206f70657261746f7220717565727920666f72206e6f6e657860448201526b34b9ba32b73a103a37b5b2b760a11b606482015260840161054c565b600061173a83610ce9565b9050806001600160a01b0316846001600160a01b0316148061178157506001600160a01b0380821660009081526005602090815260408083209388168352929052205460ff165b806117a55750836001600160a01b031661179a8461068f565b6001600160a01b0316145b949350505050565b826001600160a01b03166117c082610ce9565b6001600160a01b0316146118245760405162461bcd60e51b815260206004820152602560248201527f4552433732313a207472616e736665722066726f6d20696e636f72726563742060448201526437bbb732b960d91b606482015260840161054c565b6001600160a01b0382166118865760405162461bcd60e51b8152602060048201526024808201527f4552433732313a207472616e7366657220746f20746865207a65726f206164646044820152637265737360e01b606482015260840161054c565b611891838383611d1c565b61189c60008261162e565b6001600160a01b03831660009081526003602052604081208054600192906118c5908490612966565b90915550506001600160a01b03821660009081526003602052604081208054600192906118f390849061297d565b909155505060008181526002602052604080822080546001600160a01b0319166001600160a01b0386811691821790925591518493918716917fddf252ad1be2c89b69c2b068fc378daa952ba7f163c4a11628f55a4df523b3ef91a4505050565b600061195f82610ce9565b905061196d81600084611d1c565b61197860008361162e565b6001600160a01b03811660009081526003602052604081208054600192906119a1908490612966565b909155505060008281526002602052604080822080546001600160a01b0319169055518391906001600160a01b038416907fddf252ad1be2c89b69c2b068fc378daa952ba7f163c4a11628f55a4df523b3ef908390a45050565b600a80546001600160a01b038381166001600160a01b0319831681179093556040519116919082907f8be0079c531659141344cd1fd0a4f28419497f9722a3daafe3b4186f6b6457e090600090a35050565b816001600160a01b0316836001600160a01b031603611aae5760405162461bcd60e51b815260206004820152601960248201527f4552433732313a20617070726f766520746f2063616c6c657200000000000000604482015260640161054c565b6001600160a01b03838116600081815260056020908152604080832094871680845294825291829020805460ff191686151590811790915591519182527f17307eab39ab6107e8899845ad3d59bd9653f200f220920489ca2b5937696c31910160405180910390a3505050565b611b268484846117ad565b611b3284848484611daf565b6113a65760405162461bcd60e51b815260040161054c90612a22565b6060600b805461060c9061285f565b606081600003611b845750506040805180820190915260018152600360fc1b602082015290565b8160005b8115611bae5780611b98816128e6565b9150611ba79050600a83612a8a565b9150611b88565b60008167ffffffffffffffff811115611bc957611bc96124c8565b6040519080825280601f01601f191660200182016040528015611bf3576020820181803683370190505b5090505b84156117a557611c08600183612966565b9150611c15600a86612a9e565b611c2090603061297d565b60f81b818381518110611c3557611c35612950565b60200101906001600160f81b031916908160001a905350611c57600a86612a8a565b9450611bf7565b60606000826002811115611c7457611c746125f8565b03611c965750506040805180820190915260018152600360fc1b602082015290565b6001826002811115611caa57611caa6125f8565b03611ccc5750506040805180820190915260018152603160f81b602082015290565b50506040805180820190915260018152601960f91b602082015290565b611cf38383611eb0565b611d006000848484611daf565b6108345760405162461bcd60e51b815260040161054c90612a22565b611d27838383611ffe565b6000818152600d602052604090206004015460ff16156108345760405162461bcd60e51b815260206004820152603760248201527f546869732067656172206973206c6f636b6564206279206f776e657220616e6460448201527f2063616e206e6f74206265207472616e73666572726564000000000000000000606482015260840161054c565b60006001600160a01b0384163b15611ea557604051630a85bd0160e11b81526001600160a01b0385169063150b7a0290611df3903390899088908890600401612ab2565b6020604051808303816000875af1925050508015611e2e575060408051601f3d908101601f19168201909252611e2b91810190612ae5565b60015b611e8b573d808015611e5c576040519150601f19603f3d011682016040523d82523d6000602084013e611e61565b606091505b508051600003611e835760405162461bcd60e51b815260040161054c90612a22565b805181602001fd5b6001600160e01b031916630a85bd0160e11b1490506117a5565b506001949350505050565b6001600160a01b038216611f065760405162461bcd60e51b815260206004820181905260248201527f4552433732313a206d696e7420746f20746865207a65726f2061646472657373604482015260640161054c565b6000818152600260205260409020546001600160a01b031615611f6b5760405162461bcd60e51b815260206004820152601c60248201527f4552433732313a20746f6b656e20616c7265616479206d696e74656400000000604482015260640161054c565b611f7760008383611d1c565b6001600160a01b0382166000908152600360205260408120805460019290611fa090849061297d565b909155505060008181526002602052604080822080546001600160a01b0319166001600160a01b03861690811790915590518392907fddf252ad1be2c89b69c2b068fc378daa952ba7f163c4a11628f55a4df523b3ef908290a45050565b6001600160a01b0383166120595761205481600880546000838152600960205260408120829055600182018355919091527ff3f7a9fe364faab93b216da50a3214154f22a0a2b415b23a84c8169e8b636ee30155565b61207c565b816001600160a01b0316836001600160a01b03161461207c5761207c83826120b6565b6001600160a01b0382166120935761083481612153565b826001600160a01b0316826001600160a01b031614610834576108348282612202565b600060016120c384610d60565b6120cd9190612966565b600083815260076020526040902054909150808214612120576001600160a01b03841660009081526006602090815260408083208584528252808320548484528184208190558352600790915290208190555b5060009182526007602090815260408084208490556001600160a01b039094168352600681528383209183525290812055565b60085460009061216590600190612966565b6000838152600960205260408120546008805493945090928490811061218d5761218d612950565b9060005260206000200154905080600883815481106121ae576121ae612950565b60009182526020808320909101929092558281526009909152604080822084905585825281205560088054806121e6576121e6612b02565b6001900381819060005260206000200160009055905550505050565b600061220d83610d60565b6001600160a01b039093166000908152600660209081526040808320868452825280832085905593825260079052919091209190915550565b8280546122529061285f565b90600052602060002090601f01602090048101928261227457600085556122ba565b82601f1061228d57805160ff19168380011785556122ba565b828001600101855582156122ba579182015b828111156122ba57825182559160200191906001019061229f565b506122c6929150612305565b5090565b6040805160c0810190915280600081526020016000815260200160008152602001600081526020016000151581526020016000151581525090565b5b808211156122c65760008155600101612306565b80356001600160a01b038116811461233157600080fd5b919050565b60008060006060848603121561234b57600080fd5b6123548461231a565b92506123626020850161231a565b9150604084013590509250925092565b6001600160e01b031981168114610b4c57600080fd5b60006020828403121561239a57600080fd5b81356123a581612372565b9392505050565b60005b838110156123c75781810151838201526020016123af565b838111156113a65750506000910152565b600081518084526123f08160208601602086016123ac565b601f01601f19169290920160200192915050565b6020815260006123a560208301846123d8565b60006020828403121561242957600080fd5b5035919050565b6000806040838503121561244357600080fd5b61244c8361231a565b946020939093013593505050565b600080600080600060a0868803121561247257600080fd5b61247b8661231a565b945060208601356003811061248f57600080fd5b94979496505050506040830135926060810135926080909101359150565b6000602082840312156124bf57600080fd5b6123a58261231a565b634e487b7160e01b600052604160045260246000fd5b600067ffffffffffffffff808411156124f9576124f96124c8565b604051601f8501601f19908116603f01168101908282118183101715612521576125216124c8565b8160405280935085815286868601111561253a57600080fd5b858560208301376000602087830101525050509392505050565b60006020828403121561256657600080fd5b813567ffffffffffffffff81111561257d57600080fd5b8201601f8101841361258e57600080fd5b6117a5848235602084016124de565b600080604083850312156125b057600080fd5b82359150602083013563ffffffff811681146125cb57600080fd5b809150509250929050565b600080604083850312156125e957600080fd5b50508035926020909101359150565b634e487b7160e01b600052602160045260246000fd5b6003811061262c57634e487b7160e01b600052602160045260246000fd5b9052565b6040808252835182820181905260009190606090818501906020808901865b8381101561266b5781518552938201939082019060010161264f565b5050868303818801528751808452888201938201925060005b818110156126db57845161269985825161260e565b80840151858501528781015188860152868101518786015260808082015115159086015260a0908101511515908501529382019360c090930192600101612684565b50919998505050505050505050565b60c081016126f8828961260e565b60208201969096526040810194909452606084019290925215156080830152151560a090910152919050565b8015158114610b4c57600080fd5b6000806040838503121561274557600080fd5b61274e8361231a565b915060208301356125cb81612724565b6000806000806080858703121561277457600080fd5b61277d8561231a565b935061278b6020860161231a565b925060408501359150606085013567ffffffffffffffff8111156127ae57600080fd5b8501601f810187136127bf57600080fd5b6127ce878235602084016124de565b91505092959194509250565b600080604083850312156127ed57600080fd5b6127f68361231a565b91506128046020840161231a565b90509250929050565b6020808252818101527f4f776e61626c653a2063616c6c6572206973206e6f7420746865206f776e6572604082015260600190565b60006020828403121561285457600080fd5b81516123a581612724565b600181811c9082168061287357607f821691505b60208210810361289357634e487b7160e01b600052602260045260246000fd5b50919050565b60208082526017908201527f6f6e6c7920636f6c6c656374696f6e206d616e61676572000000000000000000604082015260600190565b634e487b7160e01b600052601160045260246000fd5b6000600182016128f8576128f86128d0565b5060010190565b60208082526031908201527f4552433732313a207472616e736665722063616c6c6572206973206e6f74206f6040820152701ddb995c881b9bdc88185c1c1c9bdd9959607a1b606082015260800190565b634e487b7160e01b600052603260045260246000fd5b600082821015612978576129786128d0565b500390565b60008219821115612990576129906128d0565b500190565b600086516129a7818460208b016123ac565b8651908301906129bb818360208b016123ac565b602f60f81b910181815286519091906129db816001850160208b016123ac565b6001920191820181905285516129f8816002850160208a016123ac565b60029201918201528351612a138160038401602088016123ac565b01600301979650505050505050565b60208082526032908201527f4552433732313a207472616e7366657220746f206e6f6e20455243373231526560408201527131b2b4bb32b91034b6b83632b6b2b73a32b960711b606082015260800190565b634e487b7160e01b600052601260045260246000fd5b600082612a9957612a99612a74565b500490565b600082612aad57612aad612a74565b500690565b6001600160a01b03858116825284166020820152604081018390526080606082018190526000906114be908301846123d8565b600060208284031215612af757600080fd5b81516123a581612372565b634e487b7160e01b600052603160045260246000fdfea2646970667358221220f187dde1a925878600821936e0158beb2ca33d7fc30441dbf4dd88727e16811e64736f6c634300080d0033",
  "immutableReferences": {},
  "source": "// SPDX-License-Identifier: MIT\npragma solidity >=0.8.0 <0.9.0;\n\nimport '@openzeppelin/contracts/token/ERC721/extensions/ERC721Enumerable.sol';\nimport '@openzeppelin/contracts/access/Ownable.sol';\nimport '@openzeppelin/contracts/token/ERC20/IERC20.sol';\nimport \"@openzeppelin/contracts/utils/Strings.sol\";\nimport './interfaces/IGears.sol';\n\ncontract Gears is ERC721Enumerable, IGears, Ownable {\n  using Strings for uint256;\n\n  string private nftBaseURI;\n  address public collectionManager;\n  mapping (uint256 => Gear) public gears;\n  mapping (address => uint256) public lastTokenMinted;\n  uint256 public nextIdToMint = 1;\n  bool lock;\n\n\n  modifier onlyCollectionManager {\n    require(msg.sender == collectionManager, 'only collection manager');\n    _;\n  }\n\n  modifier onlyTokenOwnerOrCollectionManager(uint256 tokenId) {\n    require(msg.sender == ownerOf(tokenId) || msg.sender == collectionManager, 'only token owner or collection manager');\n    _;\n  }\n\n  constructor (string memory _nftBaseURI) ERC721('Gears', 'Gear') {\n    nftBaseURI = _nftBaseURI;\n  }\n\n  function setCollectionManager(address _collectionManager) external onlyOwner {\n    collectionManager = _collectionManager;\n  }\n\n  function _baseURI() internal view virtual override returns (string memory) {\n    return nftBaseURI;\n  }\n\n  function setBaseURI(string memory newURI) external override onlyOwner {\n    nftBaseURI = newURI;\n  }\n\n  function getRarityUrlPath(IEnums.Rarity rarity) private pure returns (string memory) {\n    if (rarity == IEnums.Rarity.COMMON) return \"0\";\n    if (rarity == IEnums.Rarity.RARE) return \"1\";\n    return \"2\";\n  }\n\n  function tokenURI(uint256 tokenId) public view virtual override returns (string memory) {\n    require(_exists(tokenId), \"ERC721Metadata: URI query for nonexistent token\");\n\n    string memory baseURI = _baseURI();\n    uint256 gearType = gears[tokenId].gearType;\n    uint256 gearCategory = gears[tokenId].category;\n    IEnums.Rarity rarity = gears[tokenId].rarity;\n    return bytes(baseURI).length > 0 ? string(abi.encodePacked(\n      baseURI, \n      tokenId.toString(), \n      \"/\",\n      gearType.toString(),\n      \"/\",\n      gearCategory.toString(),\n      \"/\",\n      getRarityUrlPath(rarity)\n      )) : \"\";\n  }\n\n  function lastOwnedTokenURI() external view returns (string memory) {\n    require (lastTokenMinted[msg.sender] != 0, \"User hasn't minted any token\");\n    return tokenURI(lastTokenMinted[msg.sender]);\n  }\n\n\n  function mint(address receiver, IEnums.Rarity rarity, uint256 gearType, uint256 category, uint256 durability) external onlyCollectionManager {\n    require(!lock, 'locked');\n    lock = true;\n    Gear memory _gear = Gear(rarity, gearType, category, durability, false, true);\n    gears[nextIdToMint] = _gear;\n    _safeMint(receiver, nextIdToMint);\n    lastTokenMinted[receiver] = nextIdToMint;\n    nextIdToMint++;\n    lock = false;\n  }\n\n  function burn(uint256 tokenId) external onlyCollectionManager {\n    gears[tokenId].locked = false;\n    gears[tokenId].set = false;\n    _burn(tokenId);\n  }\n\n\n  function allMyTokensPaginate(uint256 _from, uint256 _to) external view returns(uint256[] memory, Gear[] memory) {\n    uint256 tokenCount = balanceOf(msg.sender);\n    if (tokenCount <= _from || _from > _to || tokenCount == 0) {\n      return (new uint256[](0), new Gear[](0));\n    }\n    uint256 to = (tokenCount - 1 > _to) ? _to : tokenCount - 1;\n    uint256[] memory result = new uint256[](to - _from + 1);\n    Gear[] memory resultGears = new Gear[](to - _from + 1);\n    for (uint256 i = _from; i <= to; i++) {\n      result[i - _from] = tokenOfOwnerByIndex(msg.sender, i);\n      resultGears[i - _from] = gears[result[i - _from]];\n    }\n    return (result, resultGears);\n  }\n\n  function allTokensPaginate(uint256 _from, uint256 _to) external view returns(uint256[] memory, Gear[] memory) {\n    uint256 tokenCount = ERC721Enumerable.totalSupply();\n    if (tokenCount <= _from || _from > _to || tokenCount == 0) {\n      return (new uint256[](0), new Gear[](0));\n    }\n    uint256 to = (tokenCount - 1 > _to) ? _to : tokenCount - 1;\n    uint256[] memory ids = new uint256[](to - _from + 1);\n    Gear[] memory gearsResult = new Gear[](to - _from + 1);\n    for (uint256 i = _from; i <= to; i++) {\n      ids[i - _from] = tokenByIndex(i);\n      gearsResult[i - _from] = gears[tokenByIndex(i)];\n    }\n    return (ids, gearsResult);\n  }\n\n \n  function lockGear(uint256 tokenId) external onlyCollectionManager {\n    gears[tokenId].locked = true;\n  }\n\n  function unlockGear(uint256 tokenId) external onlyCollectionManager {\n    gears[tokenId].locked = false;\n  }\n\n  function decreaseDurability(uint256 tokenId, uint32 amount) external onlyCollectionManager {\n    if (gears[tokenId].durability <= amount) {\n       _burn(tokenId);\n    }\n\n    gears[tokenId].durability -= amount;\n  }\n\n  function _beforeTokenTransfer(address from, address to, uint256 tokenId) internal override {\n    super._beforeTokenTransfer(from, to, tokenId);\n\n    require(!gears[tokenId].locked, \"This gear is locked by owner and can not be transferred\");\n  }\n\n  function withdrawToken(address _tokenContract, address _whereTo, uint256 _amount) external onlyOwner {\n    IERC20 tokenContract = IERC20(_tokenContract);\n    tokenContract.transfer(_whereTo, _amount);\n  }\n\n}\n",
  "sourcePath": "/Users/maxim/work/marscolony/contracts/contracts/Gears.sol",
  "compiler": {
    "name": "solc",
    "version": "0.8.13+commit.abaa5c0e.Emscripten.clang"
  },
  "schemaVersion": "3.4.7",
  "updatedAt": "2022-08-23T09:01:50.618Z",
  "devdoc": {
    "kind": "dev",
    "methods": {
      "approve(address,uint256)": {
        "details": "See {IERC721-approve}."
      },
      "balanceOf(address)": {
        "details": "See {IERC721-balanceOf}."
      },
      "getApproved(uint256)": {
        "details": "See {IERC721-getApproved}."
      },
      "isApprovedForAll(address,address)": {
        "details": "See {IERC721-isApprovedForAll}."
      },
      "name()": {
        "details": "See {IERC721Metadata-name}."
      },
      "owner()": {
        "details": "Returns the address of the current owner."
      },
      "ownerOf(uint256)": {
        "details": "See {IERC721-ownerOf}."
      },
      "renounceOwnership()": {
        "details": "Leaves the contract without owner. It will not be possible to call `onlyOwner` functions anymore. Can only be called by the current owner. NOTE: Renouncing ownership will leave the contract without an owner, thereby removing any functionality that is only available to the owner."
      },
      "safeTransferFrom(address,address,uint256)": {
        "details": "See {IERC721-safeTransferFrom}."
      },
      "safeTransferFrom(address,address,uint256,bytes)": {
        "details": "See {IERC721-safeTransferFrom}."
      },
      "setApprovalForAll(address,bool)": {
        "details": "See {IERC721-setApprovalForAll}."
      },
      "supportsInterface(bytes4)": {
        "details": "See {IERC165-supportsInterface}."
      },
      "symbol()": {
        "details": "See {IERC721Metadata-symbol}."
      },
      "tokenByIndex(uint256)": {
        "details": "See {IERC721Enumerable-tokenByIndex}."
      },
      "tokenOfOwnerByIndex(address,uint256)": {
        "details": "See {IERC721Enumerable-tokenOfOwnerByIndex}."
      },
      "tokenURI(uint256)": {
        "details": "See {IERC721Metadata-tokenURI}."
      },
      "totalSupply()": {
        "details": "See {IERC721Enumerable-totalSupply}."
      },
      "transferFrom(address,address,uint256)": {
        "details": "See {IERC721-transferFrom}."
      },
      "transferOwnership(address)": {
        "details": "Transfers ownership of the contract to a new account (`newOwner`). Can only be called by the current owner."
      }
    },
    "version": 1
  },
  "userdoc": {
    "kind": "user",
    "methods": {},
    "version": 1
  }
}